{
  "contractName": "BLKTokenKYC",
  "abi": [
    {
      "anonymous": false,
      "inputs": [
        {
          "indexed": true,
          "internalType": "address",
          "name": "previousOwner",
          "type": "address"
        },
        {
          "indexed": true,
          "internalType": "address",
          "name": "newOwner",
          "type": "address"
        }
      ],
      "name": "OwnershipTransferred",
      "type": "event"
    },
    {
      "inputs": [
        {
          "internalType": "address",
          "name": "",
          "type": "address"
        }
      ],
      "name": "allowed",
      "outputs": [
        {
          "internalType": "bool",
          "name": "",
          "type": "bool"
        }
      ],
      "stateMutability": "view",
      "type": "function",
      "constant": true
    },
    {
      "inputs": [
        {
          "internalType": "uint256",
          "name": "",
          "type": "uint256"
        }
      ],
      "name": "list",
      "outputs": [
        {
          "internalType": "address",
          "name": "",
          "type": "address"
        }
      ],
      "stateMutability": "view",
      "type": "function",
      "constant": true
    },
    {
      "inputs": [],
      "name": "owner",
      "outputs": [
        {
          "internalType": "address",
          "name": "",
          "type": "address"
        }
      ],
      "stateMutability": "view",
      "type": "function",
      "constant": true
    },
    {
      "inputs": [],
      "name": "renounceOwnership",
      "outputs": [],
      "stateMutability": "nonpayable",
      "type": "function"
    },
    {
      "inputs": [
        {
          "internalType": "address",
          "name": "newOwner",
          "type": "address"
        }
      ],
      "name": "transferOwnership",
      "outputs": [],
      "stateMutability": "nonpayable",
      "type": "function"
    },
    {
      "inputs": [
        {
          "internalType": "address",
          "name": "_to",
          "type": "address"
        }
      ],
      "name": "completed",
      "outputs": [],
      "stateMutability": "nonpayable",
      "type": "function"
    },
    {
      "inputs": [
        {
          "internalType": "address",
          "name": "_to",
          "type": "address"
        }
      ],
      "name": "revoked",
      "outputs": [],
      "stateMutability": "nonpayable",
      "type": "function"
    },
    {
      "inputs": [],
      "name": "getListOfAddress",
      "outputs": [
        {
          "internalType": "address[]",
          "name": "",
          "type": "address[]"
        }
      ],
      "stateMutability": "view",
      "type": "function",
      "constant": true
    }
  ],
  "bytecode": "0x608060405234801561001057600080fd5b5061002d61002261003260201b60201c565b61003a60201b60201c565b6100fe565b600033905090565b60008060009054906101000a900473ffffffffffffffffffffffffffffffffffffffff169050816000806101000a81548173ffffffffffffffffffffffffffffffffffffffff021916908373ffffffffffffffffffffffffffffffffffffffff1602179055508173ffffffffffffffffffffffffffffffffffffffff168173ffffffffffffffffffffffffffffffffffffffff167f8be0079c531659141344cd1fd0a4f28419497f9722a3daafe3b4186f6b6457e060405160405180910390a35050565b610ce38061010d6000396000f3fe608060405234801561001057600080fd5b50600436106100885760003560e01c8063d63a8e111161005b578063d63a8e1114610103578063e420bdf414610133578063f2fde38b1461014f578063fa01dc061461016b57610088565b80630be5ef551461008d578063715018a6146100ab57806380c9419e146100b55780638da5cb5b146100e5575b600080fd5b610095610187565b6040516100a29190610a03565b60405180910390f35b6100b3610215565b005b6100cf60048036038101906100ca91906108b3565b610229565b6040516100dc91906109e8565b60405180910390f35b6100ed610268565b6040516100fa91906109e8565b60405180910390f35b61011d6004803603810190610118919061088a565b610291565b60405161012a9190610a25565b60405180910390f35b61014d6004803603810190610148919061088a565b6102b1565b005b6101696004803603810190610164919061088a565b610409565b005b6101856004803603810190610180919061088a565b61048d565b005b6060600280548060200260200160405190810160405280929190818152602001828054801561020b57602002820191906000526020600020905b8160009054906101000a900473ffffffffffffffffffffffffffffffffffffffff1673ffffffffffffffffffffffffffffffffffffffff16815260200190600101908083116101c1575b5050505050905090565b61021d610716565b6102276000610794565b565b6002818154811061023957600080fd5b906000526020600020016000915054906101000a900473ffffffffffffffffffffffffffffffffffffffff1681565b60008060009054906101000a900473ffffffffffffffffffffffffffffffffffffffff16905090565b60016020528060005260406000206000915054906101000a900460ff1681565b6102b9610716565b60001515600160008373ffffffffffffffffffffffffffffffffffffffff1673ffffffffffffffffffffffffffffffffffffffff16815260200190815260200160002060009054906101000a900460ff1615151461034c576040517f08c379a000000000000000000000000000000000000000000000000000000000815260040161034390610a80565b60405180910390fd5b60018060008373ffffffffffffffffffffffffffffffffffffffff1673ffffffffffffffffffffffffffffffffffffffff16815260200190815260200160002060006101000a81548160ff0219169083151502179055506002819080600181540180825580915050600190039060005260206000200160009091909190916101000a81548173ffffffffffffffffffffffffffffffffffffffff021916908373ffffffffffffffffffffffffffffffffffffffff16021790555050565b610411610716565b600073ffffffffffffffffffffffffffffffffffffffff168173ffffffffffffffffffffffffffffffffffffffff161415610481576040517f08c379a000000000000000000000000000000000000000000000000000000000815260040161047890610a40565b60405180910390fd5b61048a81610794565b50565b610495610716565b6000600160008373ffffffffffffffffffffffffffffffffffffffff1673ffffffffffffffffffffffffffffffffffffffff16815260200190815260200160002060006101000a81548160ff02191690831515021790555060005b600280549050811015610712578173ffffffffffffffffffffffffffffffffffffffff166002828154811061054e577f4e487b7100000000000000000000000000000000000000000000000000000000600052603260045260246000fd5b9060005260206000200160009054906101000a900473ffffffffffffffffffffffffffffffffffffffff1673ffffffffffffffffffffffffffffffffffffffff1614156106ff57600260016002805490506105a99190610aea565b815481106105e0577f4e487b7100000000000000000000000000000000000000000000000000000000600052603260045260246000fd5b9060005260206000200160009054906101000a900473ffffffffffffffffffffffffffffffffffffffff1660028281548110610645577f4e487b7100000000000000000000000000000000000000000000000000000000600052603260045260246000fd5b9060005260206000200160006101000a81548173ffffffffffffffffffffffffffffffffffffffff021916908373ffffffffffffffffffffffffffffffffffffffff16021790555060028054806106c5577f4e487b7100000000000000000000000000000000000000000000000000000000600052603160045260246000fd5b6001900381819060005260206000200160006101000a81549073ffffffffffffffffffffffffffffffffffffffff02191690559055610712565b808061070a90610b66565b9150506104f0565b5050565b61071e610858565b73ffffffffffffffffffffffffffffffffffffffff1661073c610268565b73ffffffffffffffffffffffffffffffffffffffff1614610792576040517f08c379a000000000000000000000000000000000000000000000000000000000815260040161078990610a60565b60405180910390fd5b565b60008060009054906101000a900473ffffffffffffffffffffffffffffffffffffffff169050816000806101000a81548173ffffffffffffffffffffffffffffffffffffffff021916908373ffffffffffffffffffffffffffffffffffffffff1602179055508173ffffffffffffffffffffffffffffffffffffffff168173ffffffffffffffffffffffffffffffffffffffff167f8be0079c531659141344cd1fd0a4f28419497f9722a3daafe3b4186f6b6457e060405160405180910390a35050565b600033905090565b60008135905061086f81610c7f565b92915050565b60008135905061088481610c96565b92915050565b60006020828403121561089c57600080fd5b60006108aa84828501610860565b91505092915050565b6000602082840312156108c557600080fd5b60006108d384828501610875565b91505092915050565b60006108e883836108f4565b60208301905092915050565b6108fd81610b1e565b82525050565b61090c81610b1e565b82525050565b600061091d82610ab0565b6109278185610ac8565b935061093283610aa0565b8060005b8381101561096357815161094a88826108dc565b975061095583610abb565b925050600181019050610936565b5085935050505092915050565b61097981610b30565b82525050565b600061098c602683610ad9565b915061099782610bde565b604082019050919050565b60006109af602083610ad9565b91506109ba82610c2d565b602082019050919050565b60006109d2601b83610ad9565b91506109dd82610c56565b602082019050919050565b60006020820190506109fd6000830184610903565b92915050565b60006020820190508181036000830152610a1d8184610912565b905092915050565b6000602082019050610a3a6000830184610970565b92915050565b60006020820190508181036000830152610a598161097f565b9050919050565b60006020820190508181036000830152610a79816109a2565b9050919050565b60006020820190508181036000830152610a99816109c5565b9050919050565b6000819050602082019050919050565b600081519050919050565b6000602082019050919050565b600082825260208201905092915050565b600082825260208201905092915050565b6000610af582610b5c565b9150610b0083610b5c565b925082821015610b1357610b12610baf565b5b828203905092915050565b6000610b2982610b3c565b9050919050565b60008115159050919050565b600073ffffffffffffffffffffffffffffffffffffffff82169050919050565b6000819050919050565b6000610b7182610b5c565b91507fffffffffffffffffffffffffffffffffffffffffffffffffffffffffffffffff821415610ba457610ba3610baf565b5b600182019050919050565b7f4e487b7100000000000000000000000000000000000000000000000000000000600052601160045260246000fd5b7f4f776e61626c653a206e6577206f776e657220697320746865207a65726f206160008201527f6464726573730000000000000000000000000000000000000000000000000000602082015250565b7f4f776e61626c653a2063616c6c6572206973206e6f7420746865206f776e6572600082015250565b7f5573657220697320616c726561647920696e20746865206c6973740000000000600082015250565b610c8881610b1e565b8114610c9357600080fd5b50565b610c9f81610b5c565b8114610caa57600080fd5b5056fea264697066735822122087a33367e6b5e9749d3fc64be66dd9e8c02a6e7da0916b6063be27e0d9dae5f664736f6c63430008030033",
  "immutableReferences": {},
  "source": "// SPDX-License-Identifier: MIT\npragma solidity ^0.8.3;\n\nimport \"@openzeppelin/contracts/access/Ownable.sol\";\n\ncontract BLKTokenKYC is Ownable {\n    mapping( address => bool) public allowed;\n    address[] public list;  \n    \n    function completed(address _to) public onlyOwner {\n        require(allowed[_to] == false, \"User is already in the list\");\n        allowed[_to] = true;\n        list.push(_to);\n    }\n\n    function revoked(address _to) public onlyOwner {\n        allowed[_to] = false;\n        for(uint i = 0; i < list.length; i++) {\n            if (list[i] == _to) {\n                list[i] = list[list.length - 1];\n                list.pop();\n                break;\n            }\n        }\n    }\n\n    function getListOfAddress() public view returns( address  [] memory){\n        return list;\n    }\n\n}\n",
  "sourcePath": "/home/dion/Projects/solidity-developer/assettokenization/truffle/contracts/BLKTokenKYC.sol",
  "compiler": {
    "name": "solc",
    "version": "0.8.3+commit.8d00100c.Emscripten.clang"
  },
  "schemaVersion": "3.4.9",
  "updatedAt": "2022-08-30T09:53:53.662Z",
  "networkType": "ethereum",
  "devdoc": {
    "kind": "dev",
    "methods": {
      "owner()": {
        "details": "Returns the address of the current owner."
      },
      "renounceOwnership()": {
        "details": "Leaves the contract without owner. It will not be possible to call `onlyOwner` functions anymore. Can only be called by the current owner. NOTE: Renouncing ownership will leave the contract without an owner, thereby removing any functionality that is only available to the owner."
      },
      "transferOwnership(address)": {
        "details": "Transfers ownership of the contract to a new account (`newOwner`). Can only be called by the current owner."
      }
    },
    "version": 1
  },
  "userdoc": {
    "kind": "user",
    "methods": {},
    "version": 1
  }
}