{
  "contractName": "BLKTokenSale",
  "abi": [
    {
      "inputs": [
        {
          "internalType": "uint256",
          "name": "rate",
          "type": "uint256"
        },
        {
          "internalType": "address payable",
          "name": "wallet",
          "type": "address"
        },
        {
          "internalType": "contract IERC20",
          "name": "token",
          "type": "address"
        },
        {
          "internalType": "contract BLKTokenKYC",
          "name": "_kyc",
          "type": "address"
        }
      ],
      "stateMutability": "nonpayable",
      "type": "constructor"
    },
    {
      "anonymous": false,
      "inputs": [
        {
          "indexed": true,
          "internalType": "address",
          "name": "purchaser",
          "type": "address"
        },
        {
          "indexed": true,
          "internalType": "address",
          "name": "beneficiary",
          "type": "address"
        },
        {
          "indexed": false,
          "internalType": "uint256",
          "name": "value",
          "type": "uint256"
        },
        {
          "indexed": false,
          "internalType": "uint256",
          "name": "amount",
          "type": "uint256"
        }
      ],
      "name": "TokensPurchased",
      "type": "event"
    },
    {
      "inputs": [
        {
          "internalType": "address",
          "name": "beneficiary",
          "type": "address"
        }
      ],
      "name": "buyTokens",
      "outputs": [],
      "stateMutability": "payable",
      "type": "function",
      "payable": true
    },
    {
      "inputs": [],
      "name": "rate",
      "outputs": [
        {
          "internalType": "uint256",
          "name": "",
          "type": "uint256"
        }
      ],
      "stateMutability": "view",
      "type": "function",
      "constant": true
    },
    {
      "inputs": [],
      "name": "token",
      "outputs": [
        {
          "internalType": "contract IERC20",
          "name": "",
          "type": "address"
        }
      ],
      "stateMutability": "view",
      "type": "function",
      "constant": true
    },
    {
      "inputs": [],
      "name": "wallet",
      "outputs": [
        {
          "internalType": "address payable",
          "name": "",
          "type": "address"
        }
      ],
      "stateMutability": "view",
      "type": "function",
      "constant": true
    },
    {
      "inputs": [],
      "name": "weiRaised",
      "outputs": [
        {
          "internalType": "uint256",
          "name": "",
          "type": "uint256"
        }
      ],
      "stateMutability": "view",
      "type": "function",
      "constant": true
    },
    {
      "stateMutability": "payable",
      "type": "receive",
      "payable": true
    },
    {
      "inputs": [
        {
          "internalType": "uint256",
          "name": "_rate",
          "type": "uint256"
        }
      ],
      "name": "weiPerToken",
      "outputs": [
        {
          "internalType": "uint256",
          "name": "",
          "type": "uint256"
        }
      ],
      "stateMutability": "pure",
      "type": "function",
      "constant": true
    }
  ],
  "bytecode": "0x60806040523480156200001157600080fd5b5060405162001796380380620017968339818101604052810190620000379190620002a1565b83838360016000819055506000831162000088576040517f08c379a00000000000000000000000000000000000000000000000000000000081526004016200007f90620003a4565b60405180910390fd5b600073ffffffffffffffffffffffffffffffffffffffff168273ffffffffffffffffffffffffffffffffffffffff161415620000fb576040517f08c379a0000000000000000000000000000000000000000000000000000000008152600401620000f290620003c6565b60405180910390fd5b600073ffffffffffffffffffffffffffffffffffffffff168173ffffffffffffffffffffffffffffffffffffffff1614156200016e576040517f08c379a0000000000000000000000000000000000000000000000000000000008152600401620001659062000382565b60405180910390fd5b8260038190555081600260006101000a81548173ffffffffffffffffffffffffffffffffffffffff021916908373ffffffffffffffffffffffffffffffffffffffff16021790555080600160006101000a81548173ffffffffffffffffffffffffffffffffffffffff021916908373ffffffffffffffffffffffffffffffffffffffff16021790555050505080600560006101000a81548173ffffffffffffffffffffffffffffffffffffffff021916908373ffffffffffffffffffffffffffffffffffffffff16021790555050505050620005a2565b60008151905062000256816200053a565b92915050565b6000815190506200026d8162000554565b92915050565b60008151905062000284816200056e565b92915050565b6000815190506200029b8162000588565b92915050565b60008060008060808587031215620002b857600080fd5b6000620002c8878288016200028a565b9450506020620002db8782880162000245565b9350506040620002ee8782880162000273565b925050606062000301878288016200025c565b91505092959194509250565b60006200031c602483620003e8565b9150620003298262000473565b604082019050919050565b600062000343601483620003e8565b91506200035082620004c2565b602082019050919050565b60006200036a602583620003e8565b91506200037782620004eb565b604082019050919050565b600060208201905081810360008301526200039d816200030d565b9050919050565b60006020820190508181036000830152620003bf8162000334565b9050919050565b60006020820190508181036000830152620003e1816200035b565b9050919050565b600082825260208201905092915050565b6000620004068262000449565b9050919050565b60006200041a8262000449565b9050919050565b60006200042e82620003f9565b9050919050565b60006200044282620003f9565b9050919050565b600073ffffffffffffffffffffffffffffffffffffffff82169050919050565b6000819050919050565b7f43726f776473616c653a20746f6b656e20697320746865207a65726f2061646460008201527f7265737300000000000000000000000000000000000000000000000000000000602082015250565b7f43726f776473616c653a20726174652069732030000000000000000000000000600082015250565b7f43726f776473616c653a2077616c6c657420697320746865207a65726f20616460008201527f6472657373000000000000000000000000000000000000000000000000000000602082015250565b62000545816200040d565b81146200055157600080fd5b50565b6200055f8162000421565b81146200056b57600080fd5b50565b620005798162000435565b81146200058557600080fd5b50565b620005938162000469565b81146200059f57600080fd5b50565b6111e480620005b26000396000f3fe6080604052600436106100595760003560e01c80632c4e722e146100755780634042b66f146100a0578063444b3466146100cb578063521eb27314610108578063ec8ac4d814610133578063fc0c546a1461014f57610070565b366100705761006e61006961017a565b610182565b005b600080fd5b34801561008157600080fd5b5061008a6102a8565b6040516100979190610d92565b60405180910390f35b3480156100ac57600080fd5b506100b56102b2565b6040516100c29190610d92565b60405180910390f35b3480156100d757600080fd5b506100f260048036038101906100ed91906109f8565b6102bc565b6040516100ff9190610d92565b60405180910390f35b34801561011457600080fd5b5061011d6102e5565b60405161012a9190610c11565b60405180910390f35b61014d600480360381019061014891906109a6565b610182565b005b34801561015b57600080fd5b5061016461030f565b6040516101719190610c55565b60405180910390f35b600033905090565b600260005414156101c8576040517f08c379a00000000000000000000000000000000000000000000000000000000081526004016101bf90610d52565b60405180910390fd5b600260008190555060003490506101df8282610339565b60006101ea82610431565b9050610201826004546104ae90919063ffffffff16565b60048190555061021183826104c4565b8273ffffffffffffffffffffffffffffffffffffffff1661023061017a565b73ffffffffffffffffffffffffffffffffffffffff167f6faf93231a456e552dbc9961f58d9713ee4f2e69d15f1975b050ef0911053a7b8484604051610277929190610dad565b60405180910390a361028983836104d2565b6102916104d6565b61029b8383610541565b5050600160008190555050565b6000600354905090565b6000600454905090565b600080670de0b6b3a764000090506102dd838261054590919063ffffffff16565b915050919050565b6000600260009054906101000a900473ffffffffffffffffffffffffffffffffffffffff16905090565b6000600160009054906101000a900473ffffffffffffffffffffffffffffffffffffffff16905090565b610343828261055b565b600560009054906101000a900473ffffffffffffffffffffffffffffffffffffffff1673ffffffffffffffffffffffffffffffffffffffff1663d63a8e11336040518263ffffffff1660e01b815260040161039e9190610bf6565b60206040518083038186803b1580156103b657600080fd5b505afa1580156103ca573d6000803e3d6000fd5b505050506040513d601f19601f820116820180604052508101906103ee91906109cf565b61042d576040517f08c379a000000000000000000000000000000000000000000000000000000000815260040161042490610cb2565b60405180910390fd5b5050565b600061044361043e6102a8565b6102bc565b821015610485576040517f08c379a000000000000000000000000000000000000000000000000000000000815260040161047c90610c92565b60405180910390fd5b6104a76104986104936102a8565b6102bc565b8361054590919063ffffffff16565b9050919050565b600081836104bc9190610e08565b905092915050565b6104ce8282610613565b5050565b5050565b600260009054906101000a900473ffffffffffffffffffffffffffffffffffffffff1673ffffffffffffffffffffffffffffffffffffffff166108fc349081150290604051600060405180830381858888f1935050505015801561053e573d6000803e3d6000fd5b50565b5050565b600081836105539190610e5e565b905092915050565b600073ffffffffffffffffffffffffffffffffffffffff168273ffffffffffffffffffffffffffffffffffffffff1614156105cb576040517f08c379a00000000000000000000000000000000000000000000000000000000081526004016105c290610cf2565b60405180910390fd5b600081141561060f576040517f08c379a000000000000000000000000000000000000000000000000000000000815260040161060690610d72565b60405180910390fd5b5050565b6106608282600160009054906101000a900473ffffffffffffffffffffffffffffffffffffffff1673ffffffffffffffffffffffffffffffffffffffff166106649092919063ffffffff16565b5050565b6106e58363a9059cbb60e01b8484604051602401610683929190610c2c565b604051602081830303815290604052907bffffffffffffffffffffffffffffffffffffffffffffffffffffffff19166020820180517bffffffffffffffffffffffffffffffffffffffffffffffffffffffff83818316178352505050506106ea565b505050565b600061074c826040518060400160405280602081526020017f5361666545524332303a206c6f772d6c6576656c2063616c6c206661696c65648152508573ffffffffffffffffffffffffffffffffffffffff166107b19092919063ffffffff16565b90506000815111156107ac578080602001905181019061076c91906109cf565b6107ab576040517f08c379a00000000000000000000000000000000000000000000000000000000081526004016107a290610d32565b60405180910390fd5b5b505050565b60606107c084846000856107c9565b90509392505050565b60608247101561080e576040517f08c379a000000000000000000000000000000000000000000000000000000000815260040161080590610cd2565b60405180910390fd5b610817856108dd565b610856576040517f08c379a000000000000000000000000000000000000000000000000000000000815260040161084d90610d12565b60405180910390fd5b6000808673ffffffffffffffffffffffffffffffffffffffff16858760405161087f9190610bdf565b60006040518083038185875af1925050503d80600081146108bc576040519150601f19603f3d011682016040523d82523d6000602084013e6108c1565b606091505b50915091506108d1828286610900565b92505050949350505050565b6000808273ffffffffffffffffffffffffffffffffffffffff163b119050919050565b6060831561091057829050610960565b6000835111156109235782518084602001fd5b816040517f08c379a00000000000000000000000000000000000000000000000000000000081526004016109579190610c70565b60405180910390fd5b9392505050565b60008135905061097681611169565b92915050565b60008151905061098b81611180565b92915050565b6000813590506109a081611197565b92915050565b6000602082840312156109b857600080fd5b60006109c684828501610967565b91505092915050565b6000602082840312156109e157600080fd5b60006109ef8482850161097c565b91505092915050565b600060208284031215610a0a57600080fd5b6000610a1884828501610991565b91505092915050565b610a2a81610ea1565b82525050565b610a3981610e8f565b82525050565b6000610a4a82610dd6565b610a548185610dec565b9350610a64818560208601610f0d565b80840191505092915050565b610a7981610ee9565b82525050565b6000610a8a82610de1565b610a948185610df7565b9350610aa4818560208601610f0d565b610aad81610f9e565b840191505092915050565b6000610ac5601683610df7565b9150610ad082610faf565b602082019050919050565b6000610ae8601483610df7565b9150610af382610fd8565b602082019050919050565b6000610b0b602683610df7565b9150610b1682611001565b604082019050919050565b6000610b2e602a83610df7565b9150610b3982611050565b604082019050919050565b6000610b51601d83610df7565b9150610b5c8261109f565b602082019050919050565b6000610b74602a83610df7565b9150610b7f826110c8565b604082019050919050565b6000610b97601f83610df7565b9150610ba282611117565b602082019050919050565b6000610bba601983610df7565b9150610bc582611140565b602082019050919050565b610bd981610edf565b82525050565b6000610beb8284610a3f565b915081905092915050565b6000602082019050610c0b6000830184610a30565b92915050565b6000602082019050610c266000830184610a21565b92915050565b6000604082019050610c416000830185610a30565b610c4e6020830184610bd0565b9392505050565b6000602082019050610c6a6000830184610a70565b92915050565b60006020820190508181036000830152610c8a8184610a7f565b905092915050565b60006020820190508181036000830152610cab81610ab8565b9050919050565b60006020820190508181036000830152610ccb81610adb565b9050919050565b60006020820190508181036000830152610ceb81610afe565b9050919050565b60006020820190508181036000830152610d0b81610b21565b9050919050565b60006020820190508181036000830152610d2b81610b44565b9050919050565b60006020820190508181036000830152610d4b81610b67565b9050919050565b60006020820190508181036000830152610d6b81610b8a565b9050919050565b60006020820190508181036000830152610d8b81610bad565b9050919050565b6000602082019050610da76000830184610bd0565b92915050565b6000604082019050610dc26000830185610bd0565b610dcf6020830184610bd0565b9392505050565b600081519050919050565b600081519050919050565b600081905092915050565b600082825260208201905092915050565b6000610e1382610edf565b9150610e1e83610edf565b9250827fffffffffffffffffffffffffffffffffffffffffffffffffffffffffffffffff03821115610e5357610e52610f40565b5b828201905092915050565b6000610e6982610edf565b9150610e7483610edf565b925082610e8457610e83610f6f565b5b828204905092915050565b6000610e9a82610ebf565b9050919050565b6000610eac82610ebf565b9050919050565b60008115159050919050565b600073ffffffffffffffffffffffffffffffffffffffff82169050919050565b6000819050919050565b6000610ef482610efb565b9050919050565b6000610f0682610ebf565b9050919050565b60005b83811015610f2b578082015181840152602081019050610f10565b83811115610f3a576000848401525b50505050565b7f4e487b7100000000000000000000000000000000000000000000000000000000600052601160045260246000fd5b7f4e487b7100000000000000000000000000000000000000000000000000000000600052601260045260246000fd5b6000601f19601f8301169050919050565b7f4e6f7420456e6f75676820706572203120546f6b656e00000000000000000000600082015250565b7f4b5943206973206e6f7420636f6d706c65746564000000000000000000000000600082015250565b7f416464726573733a20696e73756666696369656e742062616c616e636520666f60008201527f722063616c6c0000000000000000000000000000000000000000000000000000602082015250565b7f43726f776473616c653a2062656e656669636961727920697320746865207a6560008201527f726f206164647265737300000000000000000000000000000000000000000000602082015250565b7f416464726573733a2063616c6c20746f206e6f6e2d636f6e7472616374000000600082015250565b7f5361666545524332303a204552433230206f7065726174696f6e20646964206e60008201527f6f74207375636365656400000000000000000000000000000000000000000000602082015250565b7f5265656e7472616e637947756172643a207265656e7472616e742063616c6c00600082015250565b7f43726f776473616c653a20776569416d6f756e74206973203000000000000000600082015250565b61117281610e8f565b811461117d57600080fd5b50565b61118981610eb3565b811461119457600080fd5b50565b6111a081610edf565b81146111ab57600080fd5b5056fea2646970667358221220c952600e85f9b4c7aa4d8ca5cdd009681e5941da1e458012e67bbf76518afc1264736f6c63430008030033",
  "immutableReferences": {},
  "source": "// SPDX-License-Identifier: MIT\npragma solidity ^0.8.3;\n\nimport \"./Crowdsale.sol\";\nimport \"./BLKTokenKYC.sol\";\n\ncontract BLKTokenSale is Crowdsale {\n    using SafeMath for uint256;\n\n    BLKTokenKYC kyc;\n\n    constructor(\n        uint256 rate,\n        address payable wallet,\n        IERC20 token,\n        BLKTokenKYC _kyc\n    ) Crowdsale(rate, wallet, token) {\n        kyc = _kyc;\n    }\n\n    function _preValidatePurchase(address _beneficiary, uint256 _weiAmount)\n        internal\n        view\n        override\n    {\n        super._preValidatePurchase(_beneficiary, _weiAmount);\n        require(kyc.allowed(msg.sender), \"KYC is not completed\");\n    }\n\n    function _getTokenAmount(uint256 _weiAmount)\n        internal\n        view\n        override\n        returns (uint256)\n    {\n        require(\n            _weiAmount >= weiPerToken(super.rate()),\n            \"Not Enough per 1 Token\"\n        );\n        return _weiAmount.div(weiPerToken(super.rate()));\n    }\n\n    function weiPerToken(uint _rate) public pure returns (uint) {\n        uint256 base = 10**18;\n        return base.div(_rate);\n    }\n}\n",
  "sourcePath": "/home/dion/Projects/solidity-developer/assettokenization/truffle/contracts/BLKTokenSale.sol",
  "compiler": {
    "name": "solc",
    "version": "0.8.3+commit.8d00100c.Emscripten.clang"
  },
  "schemaVersion": "3.4.9",
  "updatedAt": "2022-08-30T09:53:53.645Z",
  "networkType": "ethereum",
  "devdoc": {
    "kind": "dev",
    "methods": {
      "buyTokens(address)": {
        "details": "low level token purchase ***DO NOT OVERRIDE*** This function has a non-reentrancy guard, so it shouldn't be called by another `nonReentrant` function.",
        "params": {
          "beneficiary": "Recipient of the token purchase"
        }
      },
      "rate()": {
        "returns": {
          "_0": "the number of token units a buyer gets per wei."
        }
      },
      "token()": {
        "returns": {
          "_0": "the token being sold."
        }
      },
      "wallet()": {
        "returns": {
          "_0": "the address where funds are collected."
        }
      },
      "weiRaised()": {
        "returns": {
          "_0": "the amount of wei raised."
        }
      }
    },
    "version": 1
  },
  "userdoc": {
    "events": {
      "TokensPurchased(address,address,uint256,uint256)": {
        "notice": "Event for token purchase logging"
      }
    },
    "kind": "user",
    "methods": {},
    "version": 1
  }
}